{
      "_format": "hh-sol-artifact-1",
      "contractName": "ParkingContract",
      "sourceName": "contracts/Park.sol",
      "abi": [
            {
                  "inputs": [],
                  "name": "counter",
                  "outputs": [
                        {
                              "internalType": "uint256",
                              "name": "",
                              "type": "uint256"
                        }
                  ],
                  "stateMutability": "view",
                  "type": "function"
            },
            {
                  "inputs": [
                        {
                              "internalType": "uint256",
                              "name": "parkingId",
                              "type": "uint256"
                        },
                        {
                              "internalType": "address",
                              "name": "buyer",
                              "type": "address"
                        }
                  ],
                  "name": "fillPark",
                  "outputs": [],
                  "stateMutability": "nonpayable",
                  "type": "function"
            },
            {
                  "inputs": [
                        {
                              "internalType": "uint256",
                              "name": "parkingId",
                              "type": "uint256"
                        },
                        {
                              "internalType": "uint256",
                              "name": "amount",
                              "type": "uint256"
                        }
                  ],
                  "name": "finishPark",
                  "outputs": [],
                  "stateMutability": "nonpayable",
                  "type": "function"
            },
            {
                  "inputs": [],
                  "name": "getAllParkDetails",
                  "outputs": [
                        {
                              "components": [
                                    {
                                          "internalType": "string",
                                          "name": "name",
                                          "type": "string"
                                    },
                                    {
                                          "internalType": "string",
                                          "name": "place",
                                          "type": "string"
                                    },
                                    {
                                          "internalType": "string",
                                          "name": "pincode",
                                          "type": "string"
                                    },
                                    {
                                          "internalType": "bytes32",
                                          "name": "imageHash",
                                          "type": "bytes32"
                                    },
                                    {
                                          "internalType": "address",
                                          "name": "creatorWallet",
                                          "type": "address"
                                    },
                                    {
                                          "internalType": "address",
                                          "name": "buyerWallet",
                                          "type": "address"
                                    },
                                    {
                                          "internalType": "uint256",
                                          "name": "amount",
                                          "type": "uint256"
                                    },
                                    {
                                          "internalType": "string",
                                          "name": "day",
                                          "type": "string"
                                    },
                                    {
                                          "internalType": "string",
                                          "name": "time",
                                          "type": "string"
                                    },
                                    {
                                          "internalType": "bool",
                                          "name": "available",
                                          "type": "bool"
                                    },
                                    {
                                          "internalType": "bool",
                                          "name": "completed",
                                          "type": "bool"
                                    }
                              ],
                              "internalType": "struct ParkingContract.ParkingDetails[]",
                              "name": "",
                              "type": "tuple[]"
                        }
                  ],
                  "stateMutability": "view",
                  "type": "function"
            },
            {
                  "inputs": [],
                  "name": "getCounter",
                  "outputs": [
                        {
                              "internalType": "uint256",
                              "name": "",
                              "type": "uint256"
                        }
                  ],
                  "stateMutability": "view",
                  "type": "function"
            },
            {
                  "inputs": [
                        {
                              "internalType": "uint256",
                              "name": "parkingId",
                              "type": "uint256"
                        }
                  ],
                  "name": "getParkDetails",
                  "outputs": [
                        {
                              "internalType": "string",
                              "name": "name",
                              "type": "string"
                        },
                        {
                              "internalType": "string",
                              "name": "place",
                              "type": "string"
                        },
                        {
                              "internalType": "string",
                              "name": "pincode",
                              "type": "string"
                        },
                        {
                              "internalType": "bytes32",
                              "name": "imageHash",
                              "type": "bytes32"
                        },
                        {
                              "internalType": "address",
                              "name": "creatorWallet",
                              "type": "address"
                        },
                        {
                              "internalType": "address",
                              "name": "buyerWallet",
                              "type": "address"
                        },
                        {
                              "internalType": "uint256",
                              "name": "amount",
                              "type": "uint256"
                        },
                        {
                              "internalType": "string",
                              "name": "day",
                              "type": "string"
                        },
                        {
                              "internalType": "string",
                              "name": "time",
                              "type": "string"
                        },
                        {
                              "internalType": "bool",
                              "name": "available",
                              "type": "bool"
                        },
                        {
                              "internalType": "bool",
                              "name": "completed",
                              "type": "bool"
                        }
                  ],
                  "stateMutability": "view",
                  "type": "function"
            },
            {
                  "inputs": [
                        {
                              "internalType": "address",
                              "name": "",
                              "type": "address"
                        }
                  ],
                  "name": "parkingIdByWallet",
                  "outputs": [
                        {
                              "internalType": "uint256",
                              "name": "",
                              "type": "uint256"
                        }
                  ],
                  "stateMutability": "view",
                  "type": "function"
            },
            {
                  "inputs": [
                        {
                              "internalType": "uint256",
                              "name": "",
                              "type": "uint256"
                        }
                  ],
                  "name": "parkingSpaces",
                  "outputs": [
                        {
                              "internalType": "string",
                              "name": "name",
                              "type": "string"
                        },
                        {
                              "internalType": "string",
                              "name": "place",
                              "type": "string"
                        },
                        {
                              "internalType": "string",
                              "name": "pincode",
                              "type": "string"
                        },
                        {
                              "internalType": "bytes32",
                              "name": "imageHash",
                              "type": "bytes32"
                        },
                        {
                              "internalType": "address",
                              "name": "creatorWallet",
                              "type": "address"
                        },
                        {
                              "internalType": "address",
                              "name": "buyerWallet",
                              "type": "address"
                        },
                        {
                              "internalType": "uint256",
                              "name": "amount",
                              "type": "uint256"
                        },
                        {
                              "internalType": "string",
                              "name": "day",
                              "type": "string"
                        },
                        {
                              "internalType": "string",
                              "name": "time",
                              "type": "string"
                        },
                        {
                              "internalType": "bool",
                              "name": "available",
                              "type": "bool"
                        },
                        {
                              "internalType": "bool",
                              "name": "completed",
                              "type": "bool"
                        }
                  ],
                  "stateMutability": "view",
                  "type": "function"
            },
            {
                  "inputs": [
                        {
                              "internalType": "string",
                              "name": "name",
                              "type": "string"
                        },
                        {
                              "internalType": "string",
                              "name": "place",
                              "type": "string"
                        },
                        {
                              "internalType": "string",
                              "name": "pincode",
                              "type": "string"
                        },
                        {
                              "internalType": "bytes32",
                              "name": "imageHash",
                              "type": "bytes32"
                        },
                        {
                              "internalType": "uint256",
                              "name": "amount",
                              "type": "uint256"
                        },
                        {
                              "internalType": "string",
                              "name": "day",
                              "type": "string"
                        },
                        {
                              "internalType": "string",
                              "name": "time",
                              "type": "string"
                        }
                  ],
                  "name": "storePark",
                  "outputs": [],
                  "stateMutability": "nonpayable",
                  "type": "function"
            }
      ],
      "bytecode": "0x608060405234801561001057600080fd5b5061223e806100206000396000f3fe608060405234801561001057600080fd5b50600436106100935760003560e01c8063871ac6c011610066578063871ac6c01461015a5780638ada066e146101785780638b1eff2a14610196578063e193260a146101b2578063ef9ac2a8146101ce57610093565b8063252dd42e1461009857806358bd5e2a146100c857806361bc221a1461010257806379779c7f14610120575b600080fd5b6100b260048036038101906100ad91906113d1565b6101ea565b6040516100bf9190611417565b60405180910390f35b6100e260048036038101906100dd919061145e565b610202565b6040516100f99b9a9998979695949392919061155e565b60405180910390f35b61010a61055e565b6040516101179190611417565b60405180910390f35b61013a6004803603810190610135919061145e565b610564565b6040516101519b9a9998979695949392919061155e565b60405180910390f35b6101626108fa565b60405161016f919061187f565b60405180910390f35b610180610d8b565b60405161018d9190611417565b60405180910390f35b6101b060048036038101906101ab91906118a1565b610d95565b005b6101cc60048036038101906101c791906118e1565b610e80565b005b6101e860048036038101906101e39190611a82565b61110f565b005b60006020528060005260406000206000915090505481565b600160205280600052604060002060009150905080600001805461022590611bdf565b80601f016020809104026020016040519081016040528092919081815260200182805461025190611bdf565b801561029e5780601f106102735761010080835404028352916020019161029e565b820191906000526020600020905b81548152906001019060200180831161028157829003601f168201915b5050505050908060010180546102b390611bdf565b80601f01602080910402602001604051908101604052809291908181526020018280546102df90611bdf565b801561032c5780601f106103015761010080835404028352916020019161032c565b820191906000526020600020905b81548152906001019060200180831161030f57829003601f168201915b50505050509080600201805461034190611bdf565b80601f016020809104026020016040519081016040528092919081815260200182805461036d90611bdf565b80156103ba5780601f1061038f576101008083540402835291602001916103ba565b820191906000526020600020905b81548152906001019060200180831161039d57829003601f168201915b5050505050908060030154908060040160009054906101000a900473ffffffffffffffffffffffffffffffffffffffff16908060050160009054906101000a900473ffffffffffffffffffffffffffffffffffffffff169080600601549080600701805461042790611bdf565b80601f016020809104026020016040519081016040528092919081815260200182805461045390611bdf565b80156104a05780601f10610475576101008083540402835291602001916104a0565b820191906000526020600020905b81548152906001019060200180831161048357829003601f168201915b5050505050908060080180546104b590611bdf565b80601f01602080910402602001604051908101604052809291908181526020018280546104e190611bdf565b801561052e5780601f106105035761010080835404028352916020019161052e565b820191906000526020600020905b81548152906001019060200180831161051157829003601f168201915b5050505050908060090160009054906101000a900460ff16908060090160019054906101000a900460ff1690508b565b60025481565b60608060606000806000806060806000806000600160008e8152602001908152602001600020905080600001816001018260020183600301548460040160009054906101000a900473ffffffffffffffffffffffffffffffffffffffff168560050160009054906101000a900473ffffffffffffffffffffffffffffffffffffffff16866006015487600701886008018960090160009054906101000a900460ff168a60090160019054906101000a900460ff168a805461062490611bdf565b80601f016020809104026020016040519081016040528092919081815260200182805461065090611bdf565b801561069d5780601f106106725761010080835404028352916020019161069d565b820191906000526020600020905b81548152906001019060200180831161068057829003601f168201915b50505050509a508980546106b090611bdf565b80601f01602080910402602001604051908101604052809291908181526020018280546106dc90611bdf565b80156107295780601f106106fe57610100808354040283529160200191610729565b820191906000526020600020905b81548152906001019060200180831161070c57829003601f168201915b5050505050995088805461073c90611bdf565b80601f016020809104026020016040519081016040528092919081815260200182805461076890611bdf565b80156107b55780601f1061078a576101008083540402835291602001916107b5565b820191906000526020600020905b81548152906001019060200180831161079857829003601f168201915b505050505098508380546107c890611bdf565b80601f01602080910402602001604051908101604052809291908181526020018280546107f490611bdf565b80156108415780601f1061081657610100808354040283529160200191610841565b820191906000526020600020905b81548152906001019060200180831161082457829003601f168201915b5050505050935082805461085490611bdf565b80601f016020809104026020016040519081016040528092919081815260200182805461088090611bdf565b80156108cd5780601f106108a2576101008083540402835291602001916108cd565b820191906000526020600020905b8154815290600101906020018083116108b057829003601f168201915b505050505092509b509b509b509b509b509b509b509b509b509b509b505091939597999b90929496989a50565b6060600060025467ffffffffffffffff81111561091a5761091961192b565b5b60405190808252806020026020018201604052801561095357816020015b6109406112d2565b8152602001906001900390816109385790505b50905060005b600254811015610d8357600160008281526020019081526020016000206040518061016001604052908160008201805461099290611bdf565b80601f01602080910402602001604051908101604052809291908181526020018280546109be90611bdf565b8015610a0b5780601f106109e057610100808354040283529160200191610a0b565b820191906000526020600020905b8154815290600101906020018083116109ee57829003601f168201915b50505050508152602001600182018054610a2490611bdf565b80601f0160208091040260200160405190810160405280929190818152602001828054610a5090611bdf565b8015610a9d5780601f10610a7257610100808354040283529160200191610a9d565b820191906000526020600020905b815481529060010190602001808311610a8057829003601f168201915b50505050508152602001600282018054610ab690611bdf565b80601f0160208091040260200160405190810160405280929190818152602001828054610ae290611bdf565b8015610b2f5780601f10610b0457610100808354040283529160200191610b2f565b820191906000526020600020905b815481529060010190602001808311610b1257829003601f168201915b50505050508152602001600382015481526020016004820160009054906101000a900473ffffffffffffffffffffffffffffffffffffffff1673ffffffffffffffffffffffffffffffffffffffff1673ffffffffffffffffffffffffffffffffffffffff1681526020016005820160009054906101000a900473ffffffffffffffffffffffffffffffffffffffff1673ffffffffffffffffffffffffffffffffffffffff1673ffffffffffffffffffffffffffffffffffffffff16815260200160068201548152602001600782018054610c0890611bdf565b80601f0160208091040260200160405190810160405280929190818152602001828054610c3490611bdf565b8015610c815780601f10610c5657610100808354040283529160200191610c81565b820191906000526020600020905b815481529060010190602001808311610c6457829003601f168201915b50505050508152602001600882018054610c9a90611bdf565b80601f0160208091040260200160405190810160405280929190818152602001828054610cc690611bdf565b8015610d135780601f10610ce857610100808354040283529160200191610d13565b820191906000526020600020905b815481529060010190602001808311610cf657829003601f168201915b505050505081526020016009820160009054906101000a900460ff161515151581526020016009820160019054906101000a900460ff161515151581525050828281518110610d6557610d64611c10565b5b60200260200101819052508080610d7b90611c6e565b915050610959565b508091505090565b6000600254905090565b6001600083815260200190815260200160002060090160009054906101000a900460ff16610df8576040517f08c379a0000000000000000000000000000000000000000000000000000000008152600401610def90611d02565b60405180910390fd5b60006001600084815260200190815260200160002060090160006101000a81548160ff021916908315150217905550806001600084815260200190815260200160002060050160006101000a81548173ffffffffffffffffffffffffffffffffffffffff021916908373ffffffffffffffffffffffffffffffffffffffff1602179055505050565b6001600083815260200190815260200160002060090160019054906101000a900460ff1615610ee4576040517f08c379a0000000000000000000000000000000000000000000000000000000008152600401610edb90611d6e565b60405180910390fd5b6001600083815260200190815260200160002060040160009054906101000a900473ffffffffffffffffffffffffffffffffffffffff1673ffffffffffffffffffffffffffffffffffffffff163373ffffffffffffffffffffffffffffffffffffffff1614610f88576040517f08c379a0000000000000000000000000000000000000000000000000000000008152600401610f7f90611e00565b60405180910390fd5b600073ffffffffffffffffffffffffffffffffffffffff166001600084815260200190815260200160002060050160009054906101000a900473ffffffffffffffffffffffffffffffffffffffff1673ffffffffffffffffffffffffffffffffffffffff160361102d576040517f08c379a000000000000000000000000000000000000000000000000000000000815260040161102490611e92565b60405180910390fd5b60006001600084815260200190815260200160002060050160009054906101000a900473ffffffffffffffffffffffffffffffffffffffff1673ffffffffffffffffffffffffffffffffffffffff166108fc839081150290604051600060405180830381858888f193505050509050806110dc576040517f08c379a00000000000000000000000000000000000000000000000000000000081526004016110d390611efe565b60405180910390fd5b600180600085815260200190815260200160002060090160016101000a81548160ff021916908315150217905550505050565b823373ffffffffffffffffffffffffffffffffffffffff16311015611169576040517f08c379a000000000000000000000000000000000000000000000000000000000815260040161116090611f6a565b60405180910390fd5b60006001600060025481526020019081526020016000209050878160000190816111939190612136565b50868160010190816111a59190612136565b50858160020190816111b79190612136565b50848160030181905550338160040160006101000a81548173ffffffffffffffffffffffffffffffffffffffff021916908373ffffffffffffffffffffffffffffffffffffffff1602179055508381600601819055508281600701908161121e9190612136565b50818160080190816112309190612136565b5060018160090160006101000a81548160ff02191690831515021790555060008160090160016101000a81548160ff0219169083151502179055506002546000803373ffffffffffffffffffffffffffffffffffffffff1673ffffffffffffffffffffffffffffffffffffffff16815260200190815260200160002081905550600260008154809291906112c390611c6e565b91905055505050505050505050565b60405180610160016040528060608152602001606081526020016060815260200160008019168152602001600073ffffffffffffffffffffffffffffffffffffffff168152602001600073ffffffffffffffffffffffffffffffffffffffff1681526020016000815260200160608152602001606081526020016000151581526020016000151581525090565b6000604051905090565b600080fd5b600080fd5b600073ffffffffffffffffffffffffffffffffffffffff82169050919050565b600061139e82611373565b9050919050565b6113ae81611393565b81146113b957600080fd5b50565b6000813590506113cb816113a5565b92915050565b6000602082840312156113e7576113e6611369565b5b60006113f5848285016113bc565b91505092915050565b6000819050919050565b611411816113fe565b82525050565b600060208201905061142c6000830184611408565b92915050565b61143b816113fe565b811461144657600080fd5b50565b60008135905061145881611432565b92915050565b60006020828403121561147457611473611369565b5b600061148284828501611449565b91505092915050565b600081519050919050565b600082825260208201905092915050565b60005b838110156114c55780820151818401526020810190506114aa565b60008484015250505050565b6000601f19601f8301169050919050565b60006114ed8261148b565b6114f78185611496565b93506115078185602086016114a7565b611510816114d1565b840191505092915050565b6000819050919050565b61152e8161151b565b82525050565b61153d81611393565b82525050565b60008115159050919050565b61155881611543565b82525050565b6000610160820190508181036000830152611579818e6114e2565b9050818103602083015261158d818d6114e2565b905081810360408301526115a1818c6114e2565b90506115b0606083018b611525565b6115bd608083018a611534565b6115ca60a0830189611534565b6115d760c0830188611408565b81810360e08301526115e981876114e2565b90508181036101008301526115fe81866114e2565b905061160e61012083018561154f565b61161c61014083018461154f565b9c9b505050505050505050505050565b600081519050919050565b600082825260208201905092915050565b6000819050602082019050919050565b600082825260208201905092915050565b60006116748261148b565b61167e8185611658565b935061168e8185602086016114a7565b611697816114d1565b840191505092915050565b6116ab8161151b565b82525050565b6116ba81611393565b82525050565b6116c9816113fe565b82525050565b6116d881611543565b82525050565b60006101608301600083015184820360008601526116fc8282611669565b915050602083015184820360208601526117168282611669565b915050604083015184820360408601526117308282611669565b915050606083015161174560608601826116a2565b50608083015161175860808601826116b1565b5060a083015161176b60a08601826116b1565b5060c083015161177e60c08601826116c0565b5060e083015184820360e08601526117968282611669565b9150506101008301518482036101008601526117b28282611669565b9150506101208301516117c96101208601826116cf565b506101408301516117de6101408601826116cf565b508091505092915050565b60006117f583836116de565b905092915050565b6000602082019050919050565b60006118158261162c565b61181f8185611637565b93508360208202850161183185611648565b8060005b8581101561186d578484038952815161184e85826117e9565b9450611859836117fd565b925060208a01995050600181019050611835565b50829750879550505050505092915050565b60006020820190508181036000830152611899818461180a565b905092915050565b600080604083850312156118b8576118b7611369565b5b60006118c685828601611449565b92505060206118d7858286016113bc565b9150509250929050565b600080604083850312156118f8576118f7611369565b5b600061190685828601611449565b925050602061191785828601611449565b9150509250929050565b600080fd5b600080fd5b7f4e487b7100000000000000000000000000000000000000000000000000000000600052604160045260246000fd5b611963826114d1565b810181811067ffffffffffffffff821117156119825761198161192b565b5b80604052505050565b600061199561135f565b90506119a1828261195a565b919050565b600067ffffffffffffffff8211156119c1576119c061192b565b5b6119ca826114d1565b9050602081019050919050565b82818337600083830152505050565b60006119f96119f4846119a6565b61198b565b905082815260208101848484011115611a1557611a14611926565b5b611a208482856119d7565b509392505050565b600082601f830112611a3d57611a3c611921565b5b8135611a4d8482602086016119e6565b91505092915050565b611a5f8161151b565b8114611a6a57600080fd5b50565b600081359050611a7c81611a56565b92915050565b600080600080600080600060e0888a031215611aa157611aa0611369565b5b600088013567ffffffffffffffff811115611abf57611abe61136e565b5b611acb8a828b01611a28565b975050602088013567ffffffffffffffff811115611aec57611aeb61136e565b5b611af88a828b01611a28565b965050604088013567ffffffffffffffff811115611b1957611b1861136e565b5b611b258a828b01611a28565b9550506060611b368a828b01611a6d565b9450506080611b478a828b01611449565b93505060a088013567ffffffffffffffff811115611b6857611b6761136e565b5b611b748a828b01611a28565b92505060c088013567ffffffffffffffff811115611b9557611b9461136e565b5b611ba18a828b01611a28565b91505092959891949750929550565b7f4e487b7100000000000000000000000000000000000000000000000000000000600052602260045260246000fd5b60006002820490506001821680611bf757607f821691505b602082108103611c0a57611c09611bb0565b5b50919050565b7f4e487b7100000000000000000000000000000000000000000000000000000000600052603260045260246000fd5b7f4e487b7100000000000000000000000000000000000000000000000000000000600052601160045260246000fd5b6000611c79826113fe565b91507fffffffffffffffffffffffffffffffffffffffffffffffffffffffffffffffff8203611cab57611caa611c3f565b5b600182019050919050565b7f5061726b696e67207370616365206973206e6f7420617661696c61626c650000600082015250565b6000611cec601e83611496565b9150611cf782611cb6565b602082019050919050565b60006020820190508181036000830152611d1b81611cdf565b9050919050565b7f5061726b696e672072656e74616c20616c726561647920636f6d706c65746564600082015250565b6000611d58602083611496565b9150611d6382611d22565b602082019050919050565b60006020820190508181036000830152611d8781611d4b565b9050919050565b7f4f6e6c79207468652063726561746f722063616e2066696e697368207468652060008201527f7061726b696e6700000000000000000000000000000000000000000000000000602082015250565b6000611dea602783611496565b9150611df582611d8e565b604082019050919050565b60006020820190508181036000830152611e1981611ddd565b9050919050565b7f4e6f2062757965722061737369676e656420666f7220746865207061726b696e60008201527f6700000000000000000000000000000000000000000000000000000000000000602082015250565b6000611e7c602183611496565b9150611e8782611e20565b604082019050919050565b60006020820190508181036000830152611eab81611e6f565b9050919050565b7f5472616e73666572206661696c65640000000000000000000000000000000000600082015250565b6000611ee8600f83611496565b9150611ef382611eb2565b602082019050919050565b60006020820190508181036000830152611f1781611edb565b9050919050565b7f496e73756666696369656e742062616c616e6365000000000000000000000000600082015250565b6000611f54601483611496565b9150611f5f82611f1e565b602082019050919050565b60006020820190508181036000830152611f8381611f47565b9050919050565b60008190508160005260206000209050919050565b60006020601f8301049050919050565b600082821b905092915050565b600060088302611fec7fffffffffffffffffffffffffffffffffffffffffffffffffffffffffffffffff82611faf565b611ff68683611faf565b95508019841693508086168417925050509392505050565b6000819050919050565b600061203361202e612029846113fe565b61200e565b6113fe565b9050919050565b6000819050919050565b61204d83612018565b6120616120598261203a565b848454611fbc565b825550505050565b600090565b612076612069565b612081818484612044565b505050565b5b818110156120a55761209a60008261206e565b600181019050612087565b5050565b601f8211156120ea576120bb81611f8a565b6120c484611f9f565b810160208510156120d3578190505b6120e76120df85611f9f565b830182612086565b50505b505050565b600082821c905092915050565b600061210d600019846008026120ef565b1980831691505092915050565b600061212683836120fc565b9150826002028217905092915050565b61213f8261148b565b67ffffffffffffffff8111156121585761215761192b565b5b6121628254611bdf565b61216d8282856120a9565b600060209050601f8311600181146121a0576000841561218e578287015190505b612198858261211a565b865550612200565b601f1984166121ae86611f8a565b60005b828110156121d6578489015182556001820191506020850194506020810190506121b1565b868310156121f357848901516121ef601f8916826120fc565b8355505b6001600288020188555050505b50505050505056fea26469706673582212205a09209d01c7b457e0a641c8ed68681ce31a17ec49bcd9fbd243acea6ab343a864736f6c63430008130033",
      "linkReferences": {},
      "deployedLinkReferences": {}
}