{
   "_format": "hh-sol-artifact-1",
   "contractName": "ParkingContract",
   "sourceName": "contracts/Park.sol",
   "abi": [
      {
         "inputs": [],
         "name": "counter",
         "outputs": [
            {
               "internalType": "uint256",
               "name": "",
               "type": "uint256"
            }
         ],
         "stateMutability": "view",
         "type": "function"
      },
      {
         "inputs": [
            {
               "internalType": "uint256",
               "name": "parkingId",
               "type": "uint256"
            },
            {
               "internalType": "address",
               "name": "buyer",
               "type": "address"
            }
         ],
         "name": "fillPark",
         "outputs": [],
         "stateMutability": "nonpayable",
         "type": "function"
      },
      {
         "inputs": [
            {
               "internalType": "uint256",
               "name": "parkingId",
               "type": "uint256"
            },
            {
               "internalType": "uint256",
               "name": "amount",
               "type": "uint256"
            }
         ],
         "name": "finishPark",
         "outputs": [],
         "stateMutability": "nonpayable",
         "type": "function"
      },
      {
         "inputs": [
            {
               "internalType": "uint256",
               "name": "parkingId",
               "type": "uint256"
            }
         ],
         "name": "generateNewParking",
         "outputs": [],
         "stateMutability": "nonpayable",
         "type": "function"
      },
      {
         "inputs": [],
         "name": "getAllParkDetails",
         "outputs": [
            {
               "components": [
                  {
                     "internalType": "uint256",
                     "name": "parkingId",
                     "type": "uint256"
                  },
                  {
                     "internalType": "string",
                     "name": "name",
                     "type": "string"
                  },
                  {
                     "internalType": "string",
                     "name": "place",
                     "type": "string"
                  },
                  {
                     "internalType": "string",
                     "name": "pincode",
                     "type": "string"
                  },
                  {
                     "internalType": "string",
                     "name": "imageHash",
                     "type": "string"
                  },
                  {
                     "internalType": "address",
                     "name": "creatorWallet",
                     "type": "address"
                  },
                  {
                     "internalType": "address",
                     "name": "buyerWallet",
                     "type": "address"
                  },
                  {
                     "internalType": "uint256",
                     "name": "revenue",
                     "type": "uint256"
                  },
                  {
                     "internalType": "uint256",
                     "name": "amount",
                     "type": "uint256"
                  },
                  {
                     "internalType": "string",
                     "name": "day",
                     "type": "string"
                  },
                  {
                     "internalType": "string",
                     "name": "time",
                     "type": "string"
                  },
                  {
                     "internalType": "bool",
                     "name": "available",
                     "type": "bool"
                  },
                  {
                     "internalType": "bool",
                     "name": "completed",
                     "type": "bool"
                  }
               ],
               "internalType": "struct ParkingContract.ParkingDetails[]",
               "name": "",
               "type": "tuple[]"
            }
         ],
         "stateMutability": "view",
         "type": "function"
      },
      {
         "inputs": [],
         "name": "getCounter",
         "outputs": [
            {
               "internalType": "uint256",
               "name": "",
               "type": "uint256"
            }
         ],
         "stateMutability": "view",
         "type": "function"
      },
      {
         "inputs": [
            {
               "internalType": "uint256",
               "name": "parkingId",
               "type": "uint256"
            }
         ],
         "name": "getParkDetails",
         "outputs": [
            {
               "components": [
                  {
                     "internalType": "uint256",
                     "name": "parkingId",
                     "type": "uint256"
                  },
                  {
                     "internalType": "string",
                     "name": "name",
                     "type": "string"
                  },
                  {
                     "internalType": "string",
                     "name": "place",
                     "type": "string"
                  },
                  {
                     "internalType": "string",
                     "name": "pincode",
                     "type": "string"
                  },
                  {
                     "internalType": "string",
                     "name": "imageHash",
                     "type": "string"
                  },
                  {
                     "internalType": "address",
                     "name": "creatorWallet",
                     "type": "address"
                  },
                  {
                     "internalType": "address",
                     "name": "buyerWallet",
                     "type": "address"
                  },
                  {
                     "internalType": "uint256",
                     "name": "revenue",
                     "type": "uint256"
                  },
                  {
                     "internalType": "uint256",
                     "name": "amount",
                     "type": "uint256"
                  },
                  {
                     "internalType": "string",
                     "name": "day",
                     "type": "string"
                  },
                  {
                     "internalType": "string",
                     "name": "time",
                     "type": "string"
                  },
                  {
                     "internalType": "bool",
                     "name": "available",
                     "type": "bool"
                  },
                  {
                     "internalType": "bool",
                     "name": "completed",
                     "type": "bool"
                  }
               ],
               "internalType": "struct ParkingContract.ParkingDetails",
               "name": "",
               "type": "tuple"
            }
         ],
         "stateMutability": "view",
         "type": "function"
      },
      {
         "inputs": [
            {
               "internalType": "address",
               "name": "",
               "type": "address"
            }
         ],
         "name": "parkingIdByWallet",
         "outputs": [
            {
               "internalType": "uint256",
               "name": "",
               "type": "uint256"
            }
         ],
         "stateMutability": "view",
         "type": "function"
      },
      {
         "inputs": [
            {
               "internalType": "uint256",
               "name": "",
               "type": "uint256"
            }
         ],
         "name": "parkingSpaces",
         "outputs": [
            {
               "internalType": "uint256",
               "name": "parkingId",
               "type": "uint256"
            },
            {
               "internalType": "string",
               "name": "name",
               "type": "string"
            },
            {
               "internalType": "string",
               "name": "place",
               "type": "string"
            },
            {
               "internalType": "string",
               "name": "pincode",
               "type": "string"
            },
            {
               "internalType": "string",
               "name": "imageHash",
               "type": "string"
            },
            {
               "internalType": "address",
               "name": "creatorWallet",
               "type": "address"
            },
            {
               "internalType": "address",
               "name": "buyerWallet",
               "type": "address"
            },
            {
               "internalType": "uint256",
               "name": "revenue",
               "type": "uint256"
            },
            {
               "internalType": "uint256",
               "name": "amount",
               "type": "uint256"
            },
            {
               "internalType": "string",
               "name": "day",
               "type": "string"
            },
            {
               "internalType": "string",
               "name": "time",
               "type": "string"
            },
            {
               "internalType": "bool",
               "name": "available",
               "type": "bool"
            },
            {
               "internalType": "bool",
               "name": "completed",
               "type": "bool"
            }
         ],
         "stateMutability": "view",
         "type": "function"
      },
      {
         "inputs": [
            {
               "internalType": "string",
               "name": "name",
               "type": "string"
            },
            {
               "internalType": "string",
               "name": "place",
               "type": "string"
            },
            {
               "internalType": "string",
               "name": "pincode",
               "type": "string"
            },
            {
               "internalType": "string",
               "name": "imageHash",
               "type": "string"
            },
            {
               "internalType": "uint256",
               "name": "amount",
               "type": "uint256"
            },
            {
               "internalType": "string",
               "name": "day",
               "type": "string"
            },
            {
               "internalType": "string",
               "name": "time",
               "type": "string"
            }
         ],
         "name": "storePark",
         "outputs": [],
         "stateMutability": "nonpayable",
         "type": "function"
      }
   ],
   "bytecode": "0x608060405234801561001057600080fd5b50611998806100206000396000f3fe608060405234801561001057600080fd5b506004361061009e5760003560e01c806379779c7f1161006657806379779c7f14610133578063871ac6c0146101535780638ada066e146101685780638b1eff2a14610170578063e193260a1461018357600080fd5b8063103b7615146100a3578063252dd42e146100b857806358bd5e2a146100eb57806361bc221a14610117578063639c402814610120575b600080fd5b6100b66100b13660046112c6565b610196565b005b6100d86100c63660046112fb565b60006020819052908152604090205481565b6040519081526020015b60405180910390f35b6100fe6100f93660046112c6565b610255565b6040516100e29d9c9b9a99989796959493929190611363565b6100d860025481565b6100b661012e3660046114dd565b6105fb565b6101466101413660046112c6565b610712565b6040516100e291906116fe565b61015b610b14565b6040516100e29190611711565b6002546100d8565b6100b661017e366004611773565b610f9b565b6100b661019136600461179f565b611039565b6000818152600160205260409020600501546001600160a01b031633146102205760405162461bcd60e51b815260206004820152603360248201527f4f6e6c79207468652063726561746f722063616e2067656e65726174652061206044820152726e6577207061726b696e67206c697374696e6760681b60648201526084015b60405180910390fd5b6000908152600160208190526040909120600b8101805461ffff191690921790915560060180546001600160a01b0319169055565b600160208190526000918252604090912080549181018054610276906117c1565b80601f01602080910402602001604051908101604052809291908181526020018280546102a2906117c1565b80156102ef5780601f106102c4576101008083540402835291602001916102ef565b820191906000526020600020905b8154815290600101906020018083116102d257829003601f168201915b505050505090806002018054610304906117c1565b80601f0160208091040260200160405190810160405280929190818152602001828054610330906117c1565b801561037d5780601f106103525761010080835404028352916020019161037d565b820191906000526020600020905b81548152906001019060200180831161036057829003601f168201915b505050505090806003018054610392906117c1565b80601f01602080910402602001604051908101604052809291908181526020018280546103be906117c1565b801561040b5780601f106103e05761010080835404028352916020019161040b565b820191906000526020600020905b8154815290600101906020018083116103ee57829003601f168201915b505050505090806004018054610420906117c1565b80601f016020809104026020016040519081016040528092919081815260200182805461044c906117c1565b80156104995780601f1061046e57610100808354040283529160200191610499565b820191906000526020600020905b81548152906001019060200180831161047c57829003601f168201915b505050600584015460068501546007860154600887015460098801805497986001600160a01b039586169894909516965091945092916104d8906117c1565b80601f0160208091040260200160405190810160405280929190818152602001828054610504906117c1565b80156105515780601f1061052657610100808354040283529160200191610551565b820191906000526020600020905b81548152906001019060200180831161053457829003601f168201915b50505050509080600a018054610566906117c1565b80601f0160208091040260200160405190810160405280929190818152602001828054610592906117c1565b80156105df5780601f106105b4576101008083540402835291602001916105df565b820191906000526020600020905b8154815290600101906020018083116105c257829003601f168201915b505050600b909301549192505060ff808216916101009004168d565b33318311156106435760405162461bcd60e51b8152602060048201526014602482015273496e73756666696369656e742062616c616e636560601b6044820152606401610217565b600254600081815260016020819052604090912091825581016106668982611844565b50600281016106758882611844565b50600381016106848782611844565b50600481016106938682611844565b506005810180546001600160a01b0319163317905560088101849055600981016106bd8482611844565b50600a81016106cc8382611844565b50600b8101805461ffff1916600117905560006007820181905560028054338352602083905260408320819055916107038361191a565b91905055505050505050505050565b61071a611248565b600060016000848152602001908152602001600020905080604051806101a001604052908160008201548152602001600182018054610758906117c1565b80601f0160208091040260200160405190810160405280929190818152602001828054610784906117c1565b80156107d15780601f106107a6576101008083540402835291602001916107d1565b820191906000526020600020905b8154815290600101906020018083116107b457829003601f168201915b505050505081526020016002820180546107ea906117c1565b80601f0160208091040260200160405190810160405280929190818152602001828054610816906117c1565b80156108635780601f1061083857610100808354040283529160200191610863565b820191906000526020600020905b81548152906001019060200180831161084657829003601f168201915b5050505050815260200160038201805461087c906117c1565b80601f01602080910402602001604051908101604052809291908181526020018280546108a8906117c1565b80156108f55780601f106108ca576101008083540402835291602001916108f5565b820191906000526020600020905b8154815290600101906020018083116108d857829003601f168201915b5050505050815260200160048201805461090e906117c1565b80601f016020809104026020016040519081016040528092919081815260200182805461093a906117c1565b80156109875780601f1061095c57610100808354040283529160200191610987565b820191906000526020600020905b81548152906001019060200180831161096a57829003601f168201915b505050918352505060058201546001600160a01b0390811660208301526006830154166040820152600782015460608201526008820154608082015260098201805460a0909201916109d8906117c1565b80601f0160208091040260200160405190810160405280929190818152602001828054610a04906117c1565b8015610a515780601f10610a2657610100808354040283529160200191610a51565b820191906000526020600020905b815481529060010190602001808311610a3457829003601f168201915b50505050508152602001600a82018054610a6a906117c1565b80601f0160208091040260200160405190810160405280929190818152602001828054610a96906117c1565b8015610ae35780601f10610ab857610100808354040283529160200191610ae3565b820191906000526020600020905b815481529060010190602001808311610ac657829003601f168201915b5050509183525050600b919091015460ff808216151560208401526101009091041615156040909101529392505050565b6060600060025467ffffffffffffffff811115610b3357610b3361143a565b604051908082528060200260200182016040528015610b6c57816020015b610b59611248565b815260200190600190039081610b515790505b50905060005b600254811015610f955760008181526001602081815260409283902083516101a0810190945280548452918201805491840191610bae906117c1565b80601f0160208091040260200160405190810160405280929190818152602001828054610bda906117c1565b8015610c275780601f10610bfc57610100808354040283529160200191610c27565b820191906000526020600020905b815481529060010190602001808311610c0a57829003601f168201915b50505050508152602001600282018054610c40906117c1565b80601f0160208091040260200160405190810160405280929190818152602001828054610c6c906117c1565b8015610cb95780601f10610c8e57610100808354040283529160200191610cb9565b820191906000526020600020905b815481529060010190602001808311610c9c57829003601f168201915b50505050508152602001600382018054610cd2906117c1565b80601f0160208091040260200160405190810160405280929190818152602001828054610cfe906117c1565b8015610d4b5780601f10610d2057610100808354040283529160200191610d4b565b820191906000526020600020905b815481529060010190602001808311610d2e57829003601f168201915b50505050508152602001600482018054610d64906117c1565b80601f0160208091040260200160405190810160405280929190818152602001828054610d90906117c1565b8015610ddd5780601f10610db257610100808354040283529160200191610ddd565b820191906000526020600020905b815481529060010190602001808311610dc057829003601f168201915b505050918352505060058201546001600160a01b0390811660208301526006830154166040820152600782015460608201526008820154608082015260098201805460a090920191610e2e906117c1565b80601f0160208091040260200160405190810160405280929190818152602001828054610e5a906117c1565b8015610ea75780601f10610e7c57610100808354040283529160200191610ea7565b820191906000526020600020905b815481529060010190602001808311610e8a57829003601f168201915b50505050508152602001600a82018054610ec0906117c1565b80601f0160208091040260200160405190810160405280929190818152602001828054610eec906117c1565b8015610f395780601f10610f0e57610100808354040283529160200191610f39565b820191906000526020600020905b815481529060010190602001808311610f1c57829003601f168201915b5050509183525050600b919091015460ff808216151560208401526101009091041615156040909101528251839083908110610f7757610f77611933565b60200260200101819052508080610f8d9061191a565b915050610b72565b50919050565b6000828152600160205260409020600b015460ff16610ffc5760405162461bcd60e51b815260206004820152601e60248201527f5061726b696e67207370616365206973206e6f7420617661696c61626c6500006044820152606401610217565b600091825260016020526040909120600b8101805460ff1916905560060180546001600160a01b0319166001600160a01b03909216919091179055565b6000828152600160205260409020600b0154610100900460ff16156110a05760405162461bcd60e51b815260206004820181905260248201527f5061726b696e672072656e74616c20616c726561647920636f6d706c657465646044820152606401610217565b6000828152600160205260409020600601546001600160a01b031633146111175760405162461bcd60e51b815260206004820152602560248201527f4f6e6c79207468652062757965722063616e2066696e69736820746865207061604482015264726b696e6760d81b6064820152608401610217565b6000828152600160205260409020600601546001600160a01b03166111885760405162461bcd60e51b815260206004820152602160248201527f4e6f2062757965722061737369676e656420666f7220746865207061726b696e6044820152606760f81b6064820152608401610217565b6000828152600160205260408082206005015490516001600160a01b039091169083156108fc0290849084818181858888f193505050509050806112005760405162461bcd60e51b815260206004820152600f60248201526e151c985b9cd9995c8819985a5b1959608a1b6044820152606401610217565b60008381526001602052604081206007018054849290611221908490611949565b909155505050600091825250600160205260409020600b01805461ff001916610100179055565b604051806101a00160405280600081526020016060815260200160608152602001606081526020016060815260200160006001600160a01b0316815260200160006001600160a01b03168152602001600081526020016000815260200160608152602001606081526020016000151581526020016000151581525090565b6000602082840312156112d857600080fd5b5035919050565b80356001600160a01b03811681146112f657600080fd5b919050565b60006020828403121561130d57600080fd5b611316826112df565b9392505050565b6000815180845260005b8181101561134357602081850181015186830182015201611327565b506000602082860101526020601f19601f83011685010191505092915050565b8d81526101a06020820152600061137e6101a083018f61131d565b8281036040840152611390818f61131d565b905082810360608401526113a4818e61131d565b905082810360808401526113b8818d61131d565b6001600160a01b038c1660a085015290506001600160a01b038a1660c08401528860e0840152876101008401528281036101208401526113f8818861131d565b905082810361014084015261140d818761131d565b91505061141f61016083018515159052565b8215156101808301529e9d5050505050505050505050505050565b634e487b7160e01b600052604160045260246000fd5b600082601f83011261146157600080fd5b813567ffffffffffffffff8082111561147c5761147c61143a565b604051601f8301601f19908116603f011681019082821181831017156114a4576114a461143a565b816040528381528660208588010111156114bd57600080fd5b836020870160208301376000602085830101528094505050505092915050565b600080600080600080600060e0888a0312156114f857600080fd5b873567ffffffffffffffff8082111561151057600080fd5b61151c8b838c01611450565b985060208a013591508082111561153257600080fd5b61153e8b838c01611450565b975060408a013591508082111561155457600080fd5b6115608b838c01611450565b965060608a013591508082111561157657600080fd5b6115828b838c01611450565b955060808a0135945060a08a013591508082111561159f57600080fd5b6115ab8b838c01611450565b935060c08a01359150808211156115c157600080fd5b506115ce8a828b01611450565b91505092959891949750929550565b60006101a08251845260208301518160208601526115fd8286018261131d565b91505060408301518482036040860152611617828261131d565b91505060608301518482036060860152611631828261131d565b9150506080830151848203608086015261164b828261131d565b91505060a083015161166860a08601826001600160a01b03169052565b5060c083015161168360c08601826001600160a01b03169052565b5060e083015160e085015261010080840151818601525061012080840151858303828701526116b2838261131d565b9250505061014080840151858303828701526116ce838261131d565b92505050610160808401516116e68287018215159052565b50506101809283015115159390920192909252919050565b60208152600061131660208301846115dd565b6000602080830181845280855180835260408601915060408160051b870101925083870160005b8281101561176657603f198886030184526117548583516115dd565b94509285019290850190600101611738565b5092979650505050505050565b6000806040838503121561178657600080fd5b82359150611796602084016112df565b90509250929050565b600080604083850312156117b257600080fd5b50508035926020909101359150565b600181811c908216806117d557607f821691505b602082108103610f9557634e487b7160e01b600052602260045260246000fd5b601f82111561183f57600081815260208120601f850160051c8101602086101561181c5750805b601f850160051c820191505b8181101561183b57828155600101611828565b5050505b505050565b815167ffffffffffffffff81111561185e5761185e61143a565b6118728161186c84546117c1565b846117f5565b602080601f8311600181146118a7576000841561188f5750858301515b600019600386901b1c1916600185901b17855561183b565b600085815260208120601f198616915b828110156118d6578886015182559484019460019091019084016118b7565b50858210156118f45787850151600019600388901b60f8161c191681555b5050505050600190811b01905550565b634e487b7160e01b600052601160045260246000fd5b60006001820161192c5761192c611904565b5060010190565b634e487b7160e01b600052603260045260246000fd5b8082018082111561195c5761195c611904565b9291505056fea26469706673582212209db760fa56fa3116f004ed52703371204a9c90907e8de7337e734c325ff3247764736f6c63430008130033",
   "linkReferences": {},
   "deployedLinkReferences": {}
}