{
   "_format": "hh-sol-artifact-1",
   "contractName": "ParkingContract",
   "sourceName": "contracts/Park.sol",
   "abi": [
      {
         "inputs": [],
         "name": "counter",
         "outputs": [
            {
               "internalType": "uint256",
               "name": "",
               "type": "uint256"
            }
         ],
         "stateMutability": "view",
         "type": "function"
      },
      {
         "inputs": [
            {
               "internalType": "uint256",
               "name": "parkingId",
               "type": "uint256"
            },
            {
               "internalType": "address",
               "name": "buyer",
               "type": "address"
            }
         ],
         "name": "fillPark",
         "outputs": [],
         "stateMutability": "nonpayable",
         "type": "function"
      },
      {
         "inputs": [
            {
               "internalType": "uint256",
               "name": "parkingId",
               "type": "uint256"
            },
            {
               "internalType": "uint256",
               "name": "amount",
               "type": "uint256"
            }
         ],
         "name": "finishPark",
         "outputs": [],
         "stateMutability": "nonpayable",
         "type": "function"
      },
      {
         "inputs": [],
         "name": "getAllParkDetails",
         "outputs": [
            {
               "components": [
                  {
                     "internalType": "uint256",
                     "name": "parkingId",
                     "type": "uint256"
                  },
                  {
                     "internalType": "string",
                     "name": "name",
                     "type": "string"
                  },
                  {
                     "internalType": "string",
                     "name": "place",
                     "type": "string"
                  },
                  {
                     "internalType": "string",
                     "name": "pincode",
                     "type": "string"
                  },
                  {
                     "internalType": "string",
                     "name": "imageHash",
                     "type": "string"
                  },
                  {
                     "internalType": "address",
                     "name": "creatorWallet",
                     "type": "address"
                  },
                  {
                     "internalType": "address",
                     "name": "buyerWallet",
                     "type": "address"
                  },
                  {
                     "internalType": "uint256",
                     "name": "amount",
                     "type": "uint256"
                  },
                  {
                     "internalType": "string",
                     "name": "day",
                     "type": "string"
                  },
                  {
                     "internalType": "string",
                     "name": "time",
                     "type": "string"
                  },
                  {
                     "internalType": "bool",
                     "name": "available",
                     "type": "bool"
                  },
                  {
                     "internalType": "bool",
                     "name": "completed",
                     "type": "bool"
                  }
               ],
               "internalType": "struct ParkingContract.ParkingDetails[]",
               "name": "",
               "type": "tuple[]"
            }
         ],
         "stateMutability": "view",
         "type": "function"
      },
      {
         "inputs": [],
         "name": "getCounter",
         "outputs": [
            {
               "internalType": "uint256",
               "name": "",
               "type": "uint256"
            }
         ],
         "stateMutability": "view",
         "type": "function"
      },
      {
         "inputs": [
            {
               "internalType": "uint256",
               "name": "parkingId",
               "type": "uint256"
            }
         ],
         "name": "getParkDetails",
         "outputs": [
            {
               "internalType": "uint256",
               "name": "",
               "type": "uint256"
            },
            {
               "internalType": "string",
               "name": "name",
               "type": "string"
            },
            {
               "internalType": "string",
               "name": "place",
               "type": "string"
            },
            {
               "internalType": "string",
               "name": "pincode",
               "type": "string"
            },
            {
               "internalType": "string",
               "name": "imageHash",
               "type": "string"
            },
            {
               "internalType": "address",
               "name": "creatorWallet",
               "type": "address"
            },
            {
               "internalType": "address",
               "name": "buyerWallet",
               "type": "address"
            },
            {
               "internalType": "uint256",
               "name": "amount",
               "type": "uint256"
            },
            {
               "internalType": "string",
               "name": "day",
               "type": "string"
            },
            {
               "internalType": "string",
               "name": "time",
               "type": "string"
            },
            {
               "internalType": "bool",
               "name": "available",
               "type": "bool"
            },
            {
               "internalType": "bool",
               "name": "completed",
               "type": "bool"
            }
         ],
         "stateMutability": "view",
         "type": "function"
      },
      {
         "inputs": [
            {
               "internalType": "address",
               "name": "",
               "type": "address"
            }
         ],
         "name": "parkingIdByWallet",
         "outputs": [
            {
               "internalType": "uint256",
               "name": "",
               "type": "uint256"
            }
         ],
         "stateMutability": "view",
         "type": "function"
      },
      {
         "inputs": [
            {
               "internalType": "uint256",
               "name": "",
               "type": "uint256"
            }
         ],
         "name": "parkingSpaces",
         "outputs": [
            {
               "internalType": "uint256",
               "name": "parkingId",
               "type": "uint256"
            },
            {
               "internalType": "string",
               "name": "name",
               "type": "string"
            },
            {
               "internalType": "string",
               "name": "place",
               "type": "string"
            },
            {
               "internalType": "string",
               "name": "pincode",
               "type": "string"
            },
            {
               "internalType": "string",
               "name": "imageHash",
               "type": "string"
            },
            {
               "internalType": "address",
               "name": "creatorWallet",
               "type": "address"
            },
            {
               "internalType": "address",
               "name": "buyerWallet",
               "type": "address"
            },
            {
               "internalType": "uint256",
               "name": "amount",
               "type": "uint256"
            },
            {
               "internalType": "string",
               "name": "day",
               "type": "string"
            },
            {
               "internalType": "string",
               "name": "time",
               "type": "string"
            },
            {
               "internalType": "bool",
               "name": "available",
               "type": "bool"
            },
            {
               "internalType": "bool",
               "name": "completed",
               "type": "bool"
            }
         ],
         "stateMutability": "view",
         "type": "function"
      },
      {
         "inputs": [
            {
               "internalType": "string",
               "name": "name",
               "type": "string"
            },
            {
               "internalType": "string",
               "name": "place",
               "type": "string"
            },
            {
               "internalType": "string",
               "name": "pincode",
               "type": "string"
            },
            {
               "internalType": "string",
               "name": "imageHash",
               "type": "string"
            },
            {
               "internalType": "uint256",
               "name": "amount",
               "type": "uint256"
            },
            {
               "internalType": "string",
               "name": "day",
               "type": "string"
            },
            {
               "internalType": "string",
               "name": "time",
               "type": "string"
            }
         ],
         "name": "storePark",
         "outputs": [],
         "stateMutability": "nonpayable",
         "type": "function"
      }
   ],
   "bytecode": "0x608060405234801561001057600080fd5b50612406806100206000396000f3fe608060405234801561001057600080fd5b50600436106100935760003560e01c806379779c7f1161006657806379779c7f1461013d578063871ac6c0146101785780638ada066e146101965780638b1eff2a146101b4578063e193260a146101d057610093565b8063252dd42e1461009857806358bd5e2a146100c857806361bc221a14610103578063639c402814610121575b600080fd5b6100b260048036038101906100ad919061159f565b6101ec565b6040516100bf91906115e5565b60405180910390f35b6100e260048036038101906100dd919061162c565b610204565b6040516100fa9c9b9a99989796959493929190611713565b60405180910390f35b61010b6105ee565b60405161011891906115e5565b60405180910390f35b61013b6004803603810190610136919061192c565b6105f4565b005b6101576004803603810190610152919061162c565b6107cb565b60405161016f9c9b9a99989796959493929190611713565b60405180910390f35b610180610bf5565b60405161018d9190611cd6565b60405180910390f35b61019e611118565b6040516101ab91906115e5565b60405180910390f35b6101ce60048036038101906101c99190611cf8565b611122565b005b6101ea60048036038101906101e59190611d38565b61120d565b005b60006020528060005260406000206000915090505481565b600160205280600052604060002060009150905080600001549080600101805461022d90611da7565b80601f016020809104026020016040519081016040528092919081815260200182805461025990611da7565b80156102a65780601f1061027b576101008083540402835291602001916102a6565b820191906000526020600020905b81548152906001019060200180831161028957829003601f168201915b5050505050908060020180546102bb90611da7565b80601f01602080910402602001604051908101604052809291908181526020018280546102e790611da7565b80156103345780601f1061030957610100808354040283529160200191610334565b820191906000526020600020905b81548152906001019060200180831161031757829003601f168201915b50505050509080600301805461034990611da7565b80601f016020809104026020016040519081016040528092919081815260200182805461037590611da7565b80156103c25780601f10610397576101008083540402835291602001916103c2565b820191906000526020600020905b8154815290600101906020018083116103a557829003601f168201915b5050505050908060040180546103d790611da7565b80601f016020809104026020016040519081016040528092919081815260200182805461040390611da7565b80156104505780601f1061042557610100808354040283529160200191610450565b820191906000526020600020905b81548152906001019060200180831161043357829003601f168201915b5050505050908060050160009054906101000a900473ffffffffffffffffffffffffffffffffffffffff16908060060160009054906101000a900473ffffffffffffffffffffffffffffffffffffffff16908060070154908060080180546104b790611da7565b80601f01602080910402602001604051908101604052809291908181526020018280546104e390611da7565b80156105305780601f1061050557610100808354040283529160200191610530565b820191906000526020600020905b81548152906001019060200180831161051357829003601f168201915b50505050509080600901805461054590611da7565b80601f016020809104026020016040519081016040528092919081815260200182805461057190611da7565b80156105be5780601f10610593576101008083540402835291602001916105be565b820191906000526020600020905b8154815290600101906020018083116105a157829003601f168201915b50505050509080600a0160009054906101000a900460ff169080600a0160019054906101000a900460ff1690508c565b60025481565b823373ffffffffffffffffffffffffffffffffffffffff1631101561064e576040517f08c379a000000000000000000000000000000000000000000000000000000000815260040161064590611e24565b60405180910390fd5b600060016000600254815260200190815260200160002090506002548160000181905550878160010190816106839190611ff0565b50868160020190816106959190611ff0565b50858160030190816106a79190611ff0565b50848160040190816106b99190611ff0565b50338160050160006101000a81548173ffffffffffffffffffffffffffffffffffffffff021916908373ffffffffffffffffffffffffffffffffffffffff160217905550838160070181905550828160080190816107179190611ff0565b50818160090190816107299190611ff0565b50600181600a0160006101000a81548160ff021916908315150217905550600081600a0160016101000a81548160ff0219169083151502179055506002546000803373ffffffffffffffffffffffffffffffffffffffff1673ffffffffffffffffffffffffffffffffffffffff16815260200190815260200160002081905550600260008154809291906107bc906120f1565b91905055505050505050505050565b600060608060608060008060006060806000806000600160008f815260200190815260200160002090508060000154816001018260020183600301846004018560050160009054906101000a900473ffffffffffffffffffffffffffffffffffffffff168660060160009054906101000a900473ffffffffffffffffffffffffffffffffffffffff16876007015488600801896009018a600a0160009054906101000a900460ff168b600a0160019054906101000a900460ff168a805461089190611da7565b80601f01602080910402602001604051908101604052809291908181526020018280546108bd90611da7565b801561090a5780601f106108df5761010080835404028352916020019161090a565b820191906000526020600020905b8154815290600101906020018083116108ed57829003601f168201915b50505050509a5089805461091d90611da7565b80601f016020809104026020016040519081016040528092919081815260200182805461094990611da7565b80156109965780601f1061096b57610100808354040283529160200191610996565b820191906000526020600020905b81548152906001019060200180831161097957829003601f168201915b505050505099508880546109a990611da7565b80601f01602080910402602001604051908101604052809291908181526020018280546109d590611da7565b8015610a225780601f106109f757610100808354040283529160200191610a22565b820191906000526020600020905b815481529060010190602001808311610a0557829003601f168201915b50505050509850878054610a3590611da7565b80601f0160208091040260200160405190810160405280929190818152602001828054610a6190611da7565b8015610aae5780601f10610a8357610100808354040283529160200191610aae565b820191906000526020600020905b815481529060010190602001808311610a9157829003601f168201915b50505050509750838054610ac190611da7565b80601f0160208091040260200160405190810160405280929190818152602001828054610aed90611da7565b8015610b3a5780601f10610b0f57610100808354040283529160200191610b3a565b820191906000526020600020905b815481529060010190602001808311610b1d57829003601f168201915b50505050509350828054610b4d90611da7565b80601f0160208091040260200160405190810160405280929190818152602001828054610b7990611da7565b8015610bc65780601f10610b9b57610100808354040283529160200191610bc6565b820191906000526020600020905b815481529060010190602001808311610ba957829003601f168201915b505050505092509c509c509c509c509c509c509c509c509c509c509c509c505091939597999b5091939597999b565b6060600060025467ffffffffffffffff811115610c1557610c14611801565b5b604051908082528060200260200182016040528015610c4e57816020015b610c3b61149c565b815260200190600190039081610c335790505b50905060005b60025481101561111057600160008281526020019081526020016000206040518061018001604052908160008201548152602001600182018054610c9790611da7565b80601f0160208091040260200160405190810160405280929190818152602001828054610cc390611da7565b8015610d105780601f10610ce557610100808354040283529160200191610d10565b820191906000526020600020905b815481529060010190602001808311610cf357829003601f168201915b50505050508152602001600282018054610d2990611da7565b80601f0160208091040260200160405190810160405280929190818152602001828054610d5590611da7565b8015610da25780601f10610d7757610100808354040283529160200191610da2565b820191906000526020600020905b815481529060010190602001808311610d8557829003601f168201915b50505050508152602001600382018054610dbb90611da7565b80601f0160208091040260200160405190810160405280929190818152602001828054610de790611da7565b8015610e345780601f10610e0957610100808354040283529160200191610e34565b820191906000526020600020905b815481529060010190602001808311610e1757829003601f168201915b50505050508152602001600482018054610e4d90611da7565b80601f0160208091040260200160405190810160405280929190818152602001828054610e7990611da7565b8015610ec65780601f10610e9b57610100808354040283529160200191610ec6565b820191906000526020600020905b815481529060010190602001808311610ea957829003601f168201915b505050505081526020016005820160009054906101000a900473ffffffffffffffffffffffffffffffffffffffff1673ffffffffffffffffffffffffffffffffffffffff1673ffffffffffffffffffffffffffffffffffffffff1681526020016006820160009054906101000a900473ffffffffffffffffffffffffffffffffffffffff1673ffffffffffffffffffffffffffffffffffffffff1673ffffffffffffffffffffffffffffffffffffffff16815260200160078201548152602001600882018054610f9590611da7565b80601f0160208091040260200160405190810160405280929190818152602001828054610fc190611da7565b801561100e5780601f10610fe35761010080835404028352916020019161100e565b820191906000526020600020905b815481529060010190602001808311610ff157829003601f168201915b5050505050815260200160098201805461102790611da7565b80601f016020809104026020016040519081016040528092919081815260200182805461105390611da7565b80156110a05780601f10611075576101008083540402835291602001916110a0565b820191906000526020600020905b81548152906001019060200180831161108357829003601f168201915b50505050508152602001600a820160009054906101000a900460ff16151515158152602001600a820160019054906101000a900460ff1615151515815250508282815181106110f2576110f1612139565b5b60200260200101819052508080611108906120f1565b915050610c54565b508091505090565b6000600254905090565b60016000838152602001908152602001600020600a0160009054906101000a900460ff16611185576040517f08c379a000000000000000000000000000000000000000000000000000000000815260040161117c906121b4565b60405180910390fd5b600060016000848152602001908152602001600020600a0160006101000a81548160ff021916908315150217905550806001600084815260200190815260200160002060060160006101000a81548173ffffffffffffffffffffffffffffffffffffffff021916908373ffffffffffffffffffffffffffffffffffffffff1602179055505050565b60016000838152602001908152602001600020600a0160019054906101000a900460ff1615611271576040517f08c379a000000000000000000000000000000000000000000000000000000000815260040161126890612220565b60405180910390fd5b6001600083815260200190815260200160002060050160009054906101000a900473ffffffffffffffffffffffffffffffffffffffff1673ffffffffffffffffffffffffffffffffffffffff163373ffffffffffffffffffffffffffffffffffffffff1614611315576040517f08c379a000000000000000000000000000000000000000000000000000000000815260040161130c906122b2565b60405180910390fd5b600073ffffffffffffffffffffffffffffffffffffffff166001600084815260200190815260200160002060060160009054906101000a900473ffffffffffffffffffffffffffffffffffffffff1673ffffffffffffffffffffffffffffffffffffffff16036113ba576040517f08c379a00000000000000000000000000000000000000000000000000000000081526004016113b190612344565b60405180910390fd5b60006001600084815260200190815260200160002060060160009054906101000a900473ffffffffffffffffffffffffffffffffffffffff1673ffffffffffffffffffffffffffffffffffffffff166108fc839081150290604051600060405180830381858888f19350505050905080611469576040517f08c379a0000000000000000000000000000000000000000000000000000000008152600401611460906123b0565b60405180910390fd5b6001806000858152602001908152602001600020600a0160016101000a81548160ff021916908315150217905550505050565b6040518061018001604052806000815260200160608152602001606081526020016060815260200160608152602001600073ffffffffffffffffffffffffffffffffffffffff168152602001600073ffffffffffffffffffffffffffffffffffffffff1681526020016000815260200160608152602001606081526020016000151581526020016000151581525090565b6000604051905090565b600080fd5b600080fd5b600073ffffffffffffffffffffffffffffffffffffffff82169050919050565b600061156c82611541565b9050919050565b61157c81611561565b811461158757600080fd5b50565b60008135905061159981611573565b92915050565b6000602082840312156115b5576115b4611537565b5b60006115c38482850161158a565b91505092915050565b6000819050919050565b6115df816115cc565b82525050565b60006020820190506115fa60008301846115d6565b92915050565b611609816115cc565b811461161457600080fd5b50565b60008135905061162681611600565b92915050565b60006020828403121561164257611641611537565b5b600061165084828501611617565b91505092915050565b600081519050919050565b600082825260208201905092915050565b60005b83811015611693578082015181840152602081019050611678565b60008484015250505050565b6000601f19601f8301169050919050565b60006116bb82611659565b6116c58185611664565b93506116d5818560208601611675565b6116de8161169f565b840191505092915050565b6116f281611561565b82525050565b60008115159050919050565b61170d816116f8565b82525050565b600061018082019050611729600083018f6115d6565b818103602083015261173b818e6116b0565b9050818103604083015261174f818d6116b0565b90508181036060830152611763818c6116b0565b90508181036080830152611777818b6116b0565b905061178660a083018a6116e9565b61179360c08301896116e9565b6117a060e08301886115d6565b8181036101008301526117b381876116b0565b90508181036101208301526117c881866116b0565b90506117d8610140830185611704565b6117e6610160830184611704565b9d9c50505050505050505050505050565b600080fd5b600080fd5b7f4e487b7100000000000000000000000000000000000000000000000000000000600052604160045260246000fd5b6118398261169f565b810181811067ffffffffffffffff8211171561185857611857611801565b5b80604052505050565b600061186b61152d565b90506118778282611830565b919050565b600067ffffffffffffffff82111561189757611896611801565b5b6118a08261169f565b9050602081019050919050565b82818337600083830152505050565b60006118cf6118ca8461187c565b611861565b9050828152602081018484840111156118eb576118ea6117fc565b5b6118f68482856118ad565b509392505050565b600082601f830112611913576119126117f7565b5b81356119238482602086016118bc565b91505092915050565b600080600080600080600060e0888a03121561194b5761194a611537565b5b600088013567ffffffffffffffff8111156119695761196861153c565b5b6119758a828b016118fe565b975050602088013567ffffffffffffffff8111156119965761199561153c565b5b6119a28a828b016118fe565b965050604088013567ffffffffffffffff8111156119c3576119c261153c565b5b6119cf8a828b016118fe565b955050606088013567ffffffffffffffff8111156119f0576119ef61153c565b5b6119fc8a828b016118fe565b9450506080611a0d8a828b01611617565b93505060a088013567ffffffffffffffff811115611a2e57611a2d61153c565b5b611a3a8a828b016118fe565b92505060c088013567ffffffffffffffff811115611a5b57611a5a61153c565b5b611a678a828b016118fe565b91505092959891949750929550565b600081519050919050565b600082825260208201905092915050565b6000819050602082019050919050565b611aab816115cc565b82525050565b600082825260208201905092915050565b6000611acd82611659565b611ad78185611ab1565b9350611ae7818560208601611675565b611af08161169f565b840191505092915050565b611b0481611561565b82525050565b611b13816116f8565b82525050565b600061018083016000830151611b326000860182611aa2565b5060208301518482036020860152611b4a8282611ac2565b91505060408301518482036040860152611b648282611ac2565b91505060608301518482036060860152611b7e8282611ac2565b91505060808301518482036080860152611b988282611ac2565b91505060a0830151611bad60a0860182611afb565b5060c0830151611bc060c0860182611afb565b5060e0830151611bd360e0860182611aa2565b50610100830151848203610100860152611bed8282611ac2565b915050610120830151848203610120860152611c098282611ac2565b915050610140830151611c20610140860182611b0a565b50610160830151611c35610160860182611b0a565b508091505092915050565b6000611c4c8383611b19565b905092915050565b6000602082019050919050565b6000611c6c82611a76565b611c768185611a81565b935083602082028501611c8885611a92565b8060005b85811015611cc45784840389528151611ca58582611c40565b9450611cb083611c54565b925060208a01995050600181019050611c8c565b50829750879550505050505092915050565b60006020820190508181036000830152611cf08184611c61565b905092915050565b60008060408385031215611d0f57611d0e611537565b5b6000611d1d85828601611617565b9250506020611d2e8582860161158a565b9150509250929050565b60008060408385031215611d4f57611d4e611537565b5b6000611d5d85828601611617565b9250506020611d6e85828601611617565b9150509250929050565b7f4e487b7100000000000000000000000000000000000000000000000000000000600052602260045260246000fd5b60006002820490506001821680611dbf57607f821691505b602082108103611dd257611dd1611d78565b5b50919050565b7f496e73756666696369656e742062616c616e6365000000000000000000000000600082015250565b6000611e0e601483611664565b9150611e1982611dd8565b602082019050919050565b60006020820190508181036000830152611e3d81611e01565b9050919050565b60008190508160005260206000209050919050565b60006020601f8301049050919050565b600082821b905092915050565b600060088302611ea67fffffffffffffffffffffffffffffffffffffffffffffffffffffffffffffffff82611e69565b611eb08683611e69565b95508019841693508086168417925050509392505050565b6000819050919050565b6000611eed611ee8611ee3846115cc565b611ec8565b6115cc565b9050919050565b6000819050919050565b611f0783611ed2565b611f1b611f1382611ef4565b848454611e76565b825550505050565b600090565b611f30611f23565b611f3b818484611efe565b505050565b5b81811015611f5f57611f54600082611f28565b600181019050611f41565b5050565b601f821115611fa457611f7581611e44565b611f7e84611e59565b81016020851015611f8d578190505b611fa1611f9985611e59565b830182611f40565b50505b505050565b600082821c905092915050565b6000611fc760001984600802611fa9565b1980831691505092915050565b6000611fe08383611fb6565b9150826002028217905092915050565b611ff982611659565b67ffffffffffffffff81111561201257612011611801565b5b61201c8254611da7565b612027828285611f63565b600060209050601f83116001811461205a5760008415612048578287015190505b6120528582611fd4565b8655506120ba565b601f19841661206886611e44565b60005b828110156120905784890151825560018201915060208501945060208101905061206b565b868310156120ad57848901516120a9601f891682611fb6565b8355505b6001600288020188555050505b505050505050565b7f4e487b7100000000000000000000000000000000000000000000000000000000600052601160045260246000fd5b60006120fc826115cc565b91507fffffffffffffffffffffffffffffffffffffffffffffffffffffffffffffffff820361212e5761212d6120c2565b5b600182019050919050565b7f4e487b7100000000000000000000000000000000000000000000000000000000600052603260045260246000fd5b7f5061726b696e67207370616365206973206e6f7420617661696c61626c650000600082015250565b600061219e601e83611664565b91506121a982612168565b602082019050919050565b600060208201905081810360008301526121cd81612191565b9050919050565b7f5061726b696e672072656e74616c20616c726561647920636f6d706c65746564600082015250565b600061220a602083611664565b9150612215826121d4565b602082019050919050565b60006020820190508181036000830152612239816121fd565b9050919050565b7f4f6e6c79207468652063726561746f722063616e2066696e697368207468652060008201527f7061726b696e6700000000000000000000000000000000000000000000000000602082015250565b600061229c602783611664565b91506122a782612240565b604082019050919050565b600060208201905081810360008301526122cb8161228f565b9050919050565b7f4e6f2062757965722061737369676e656420666f7220746865207061726b696e60008201527f6700000000000000000000000000000000000000000000000000000000000000602082015250565b600061232e602183611664565b9150612339826122d2565b604082019050919050565b6000602082019050818103600083015261235d81612321565b9050919050565b7f5472616e73666572206661696c65640000000000000000000000000000000000600082015250565b600061239a600f83611664565b91506123a582612364565b602082019050919050565b600060208201905081810360008301526123c98161238d565b905091905056fea2646970667358221220c87b6ed63e0c4e9e8e293a099e0641c6c6ce450fead785f474ea31099dbe6a8964736f6c63430008130033",
   "linkReferences": {},
   "deployedLinkReferences": {}
}